{
  "_format": "hh-sol-artifact-1",
  "contractName": "FOW",
  "sourceName": "contracts/FOW.sol",
  "abi": [
    {
      "inputs": [],
      "stateMutability": "nonpayable",
      "type": "constructor"
    },
    {
      "inputs": [],
      "name": "owner",
      "outputs": [
        {
          "internalType": "address",
          "name": "",
          "type": "address"
        }
      ],
      "stateMutability": "view",
      "type": "function"
    },
    {
      "inputs": [],
      "name": "send",
      "outputs": [],
      "stateMutability": "payable",
      "type": "function"
    }
  ],
  "bytecode": "0x608060405234801561001057600080fd5b50336000806101000a81548173ffffffffffffffffffffffffffffffffffffffff021916908373ffffffffffffffffffffffffffffffffffffffff160217905550610242806100606000396000f3fe6080604052600436106100295760003560e01c80638da5cb5b1461002e578063b46300ec14610059575b600080fd5b34801561003a57600080fd5b50610043610063565b6040516100509190610165565b60405180910390f35b610061610087565b005b60008054906101000a900473ffffffffffffffffffffffffffffffffffffffff1681565b600034116100ca576040517f08c379a00000000000000000000000000000000000000000000000000000000081526004016100c190610180565b60405180910390fd5b60008054906101000a900473ffffffffffffffffffffffffffffffffffffffff1673ffffffffffffffffffffffffffffffffffffffff166108fc349081150290604051600060405180830381858888f19350505050158015610130573d6000803e3d6000fd5b50565b61013c816101b1565b82525050565b600061014f6014836101a0565b915061015a826101e3565b602082019050919050565b600060208201905061017a6000830184610133565b92915050565b6000602082019050818103600083015261019981610142565b9050919050565b600082825260208201905092915050565b60006101bc826101c3565b9050919050565b600073ffffffffffffffffffffffffffffffffffffffff82169050919050565b7f596f752063616e27742073656e6420302065746800000000000000000000000060008201525056fea26469706673582212206ff59d72b1f21a0b9b23771ef258a39b9c08a580b5767c40b1255fe08286964664736f6c63430008040033",
  "linkReferences": {},
  "deployedLinkReferences": {}
}